:100000000C9434000C947D040C94A6040C945100C0
:100010000C9451000C9451000C9451000C9451001C
:100020000C9451000C9451000C9451000C9451000C
:100030000C9451000C9451000C94DE040C9451006B
:100040000C9451000C9451000C9451000C945100EC
:100050000C9451000C9451000C9451000C945100DC
:100060000C943B030C94510011241FBECFEFD8E039
:10007000DEBFCDBF11E0A0E0B1E0E0EEFFE002C0E6
:1000800005900D92A831B107D9F721E0A8E1B1E0C0
:1000900001C01D92A232B207E1F70E9481070C94C1
:1000A000EE070C94000081309105C9F018F002971A
:1000B00059F1089581E090E0A0E0B0E004C0880F1D
:1000C000991FAA1FBB1F6A95D2F724B14130510571
:1000D00019F4822B84B9089580958223FBCF81E0A7
:1000E00090E0A0E0B0E004C0880F991FAA1FBB1FDA
:1000F0006A95D2F727B14130510519F4822B87B99F
:10010000089580958223FBCF81E090E0A0E0B0E0ED
:1001100004C0880F991FAA1FBB1F6A95D2F72AB186
:100120004130510519F4822B8AB9089580958223B4
:10013000FBCF81309105C1F018F0029749F1089585
:1001400081E090E0A0E0B0E004C0880F991FAA1FF2
:10015000BB1F6A95D2F725B1452B19F0822B85B9C3
:10016000089580958223FBCF81E090E0A0E0B0E08D
:1001700004C0880F991FAA1FBB1F6A95D2F728B128
:10018000452B19F0822B88B9089580958223FBCFE7
:1001900081E090E0A0E0B0E004C0880F991FAA1FA2
:1001A000BB1F6A95D2F72BB1452B19F0822B8BB967
:1001B000089580958223FBCF81309105A1F028F02E
:1001C000029799F090E080E0089583B190E0B0E06C
:1001D000A0E004C0B695A795979587956A95D2F744
:1001E000817090E0089586B1F1CF89B1EFCF813071
:1001F000910599F018F00297F9F0089535B181E072
:1002000090E0A0E0B0E004C0880F991FAA1FBB1FB8
:100210006A95D2F7832785B9089538B181E090E0D7
:10022000A0E0B0E004C0880F991FAA1FBB1F6A9509
:10023000D2F7832788B908953BB181E090E0A0E030
:10024000B0E004C0880F991FAA1FBB1F6A95D2F7A0
:1002500083278BB9089580E480937C0087E08093A6
:100260007A0080917A00806880937A0080917A0089
:1002700086FDFCCF8091780080917900089590915F
:100280007C00907F8770982B90937C0080917A00FF
:10029000806480937A0080917A0086FDFCCF809103
:1002A0007800909179000895CF93DF93C82F482F5D
:1002B000417050E065E082E090E00E9499004C2F90
:1002C0004695417050E064E082E090E00E94990021
:1002D000C2FB442740F950E063E082E090E00E94D6
:1002E0009900C3FB442740F950E062E082E090E0CF
:1002F0000E94990041E050E063E090E080E00E94BD
:1003000099000000000000000000000050E040E004
:1003100063E090E080E00E94990061E070E080E09E
:1003200090E0DF91CF910C945207CF93C82F50E00B
:1003300040E064E090E080E00E9499008C2F82957C
:100340008F700E9454018C2F8F700E945401C150F5
:1003500063E070E080E090E0C23020F061E070E0A7
:1003600080E090E0CF910C945207CF93C82F41E0EA
:1003700050E064E090E080E00E9499008C2F859529
:100380008595859585950E9454018C2F8F700E94CC
:10039000540162E070E080E090E0CF910C9452074D
:1003A00041E050E064E090E080E00E94530041E0D2
:1003B00050E063E090E080E00E94530041E050E0B4
:1003C00065E082E090E00E94530041E050E064E08C
:1003D00082E090E00E94530041E050E063E082E060
:1003E00090E00E94530041E050E062E082E090E043
:1003F0000E94530050E040E064E090E080E00E9402
:10040000990050E040E063E090E080E00E949900B5
:1004100062E370E080E090E00E94520783E00E9477
:10042000540165E070E080E090E00E94520783E0B4
:100430000E94540161E070E080E090E00E94520769
:1004400083E00E94540161E070E080E090E00E944F
:10045000520782E00E94540161E070E080E090E089
:100460000E94520788E20E94950188E00E9495014F
:1004700081E00E94950186E00E9495018CE00C9439
:100480009501CF93DF93EC018991811103C0DF9136
:10049000CF9108950E94B501F7CFCF93DF9300D09D
:1004A000CDB7DEB7198290E49A83811181E0FE0115
:1004B000E80FF11D8181860F80680F900F90DF910A
:1004C000CF910C94950150E040E061E090E080E035
:1004D0000E94530050E040E062E090E080E00E9423
:1004E000530050E040E065E090E080E00E9453005F
:1004F00041E050E061E090E080E00E94990041E03E
:1005000050E062E090E080E00E94990041E050E01D
:1005100065E090E080E00C94990061E090E080E07C
:100520000E94DC0021E0892B09F020E0822F089551
:1005300062E090E080E00E94DC0021E0892B09F07D
:1005400020E0822F089565E090E080E00E94DC00CA
:1005500021E0892B09F020E0822F089550E040E04F
:1005600064E081E090E00E94530041E050E064E0EC
:1005700081E090E00E94990050E040E065E081E079
:1005800090E00E94530041E050E065E081E090E09F
:100590000E94990088E48093B800E9EBF0E0808144
:1005A0008C7F8083089584EA8093BC0080E197E289
:1005B0002091BC0027FF09C09091B900987F81E08D
:1005C000983011F0903119F40895019789F780E07F
:1005D000089584E98093BC0008958093BB0084E86B
:1005E0008093BC0080E197E22091BC0027FF09C006
:1005F0009091B900987F81E0983111F0983219F408
:100600000895019789F780E00895CF93C82F50E0AF
:1006100040E064E081E090E00E94530041E050E05F
:1006200064E081E090E00E94990050E040E065E0E5
:1006300081E090E00E94530041E050E065E081E0FD
:1006400090E00E949900CC0FC093BA0085EC809393
:10065000BC00CF91089520911901222351F0F89404
:1006600020911801FC01208310921901789481E0F7
:10067000089580E008951F920F920FB60F921124F3
:100680008F938091B900887F803839F48091BB00C6
:100690008093180181E08093190185EC8093BC0060
:1006A0008F910F900FBE0F901F90189541E050E072
:1006B00066E082E090E00E94530050E040E066E097
:1006C00082E090E00C94990041E050E066E082E026
:1006D00090E00C94990050E040E066E082E090E009
:1006E0000C94990066E082E090E00C94F70041E001
:1006F00050E060E090E080E00E94530050E040E075
:1007000060E090E080E00C94990041E050E060E00F
:1007100090E080E00C94990050E040E060E090E0D0
:1007200080E00C94990060E090E080E00C94F70089
:1007300041E050E067E082E090E00E94530050E02A
:1007400040E067E082E090E00C949900CF93DF9363
:1007500041E050E067E082E090E00E9499006AE0AA
:1007600070E080E090E00E94520783E00E943F0129
:10077000EC0150E040E067E082E090E00E949900E8
:1007800081E0CF35D14008F480E0DF91CF9108952A
:1007900008950F931F93FC017183608353834283F9
:1007A00035832483178306831F910F910895CF9378
:1007B000DF93EB010E943F01AC018881998184178E
:1007C0009507A8F48A819B818417950798F48C81FA
:1007D0009D818417950780F481E090E06E817F8190
:1007E0006417750708F480E0DF91CF91089584E0E5
:1007F00090E0FACF83E0FCCF82E0FACF50E040E017
:1008000060E090E080E00C94990041E050E060E00E
:1008100090E080E00C94990050E040E061E090E0CE
:1008200080E00C94990041E050E061E090E080E0CD
:100830000C94990050E040E062E090E080E00C947D
:10084000990041E050E062E090E080E00C94990073
:100850000E9405040E9413040C94210441E050E01E
:1008600060E090E080E00E94530041E050E061E0F1
:1008700090E080E00E94530041E050E062E090E0B0
:1008800080E00E9453000C942804F894811111C058
:10089000809169008C7F8093690080916900682B4A
:1008A0006093690050931D0140931C01E89A78946D
:1008B00008958130E1F780916900837F809369001A
:1008C00080916900660F660F682B609369005093F2
:1008D0001B0140931A01E99AEACF811102C0E89AFC
:1008E0000895813009F4E99A0895811102C0E898C9
:1008F0000895813009F4E99808951F920F920FB678
:100900000F9211242F933F934F935F936F937F9395
:100910008F939F93AF93BF93EF93FF93E0911C014D
:10092000F0911D01309709F00995FF91EF91BF916A
:10093000AF919F918F917F916F915F914F913F9177
:100940002F910F900FBE0F901F9018951F920F922E
:100950000FB60F9211242F933F934F935F936F9392
:100960007F938F939F93AF93BF93EF93FF93E09108
:100970001A01F0911B01309709F00995FF91EF9151
:10098000BF91AF919F918F917F916F915F914F91A7
:100990003F912F910F900FBE0F901F90189584B527
:1009A000826084BD89EF87BDEEE6F0E080818260E1
:1009B000808385B5836085BD789408951F920F92DA
:1009C0000FB60F9211248F939F93AF93BF93809193
:1009D0001E0190911F01A0912001B091210101966B
:1009E000A11DB11D80931E0190931F01A0932001B2
:1009F000B0932101BF91AF919F918F910F900FBE46
:100A00000F901F9018952FB7F89460911E01709168
:100A10001F0180912001909121012FBF089522EAAA
:100A20002093800028E120938100709387006093D9
:100A300086008034910531F148F48130910511F040
:100A4000089779F08091810081600EC0811521E0C6
:100A50009207E1F081159440A9F7809181008560AB
:100A600003C0809181008260809381001092890090
:100A70001092880010928B0010928A0084B18660D8
:100A800084B90895809181008360EECF80918100C8
:100A90008460EACF209186003091870028173907BB
:100AA00020F4809186009091870090938900809334
:100AB0008800089520918600309187002817390713
:100AC00020F4809186009091870090938B00809312
:100AD0008A000895E1E8F0E08081887F80830895AE
:100AE00023EA2093B00080329105F1F038F4813090
:100AF000910501F1089771F087E00DC080389105EC
:100B0000A9F0811521E0920799F080349105A1F7B1
:100B100084E001C082E08093B1001092B300109293
:100B2000B400239A539A089583E0F5CF85E0F3CF7C
:100B300086E0F1CF81E0EFCF8093B30008958093FA
:100B4000B4000895E1EBF0E08081887F8083089510
:100B50002F923F924F925F926F927F928F929F92CD
:100B6000AF92BF92CF92DF92EF92FF920F931F93BB
:100B7000CF93DF93CDB7DEB762970FB6F894DEBFA1
:100B80000FBECDBF69017A018111D4C08FEF860FEE
:100B9000823008F06BC08AE0E0E0F1E0DE011196FF
:100BA00001900D928A95E1F78E010F5F1F4F4E0164
:100BB0002BE0820E911C412C44E2542E44EF642E13
:100BC000712CF801A190B1908F01D501A701960178
:100BD0000E94E3079B01AC01C301B2010E94B2076E
:100BE000CA01B90161507109810991096115710545
:100BF000F1E08F079105E0F08016910611F76296FB
:100C00000FB6F894DEBF0FBECDBFDF91CF911F911D
:100C10000F91FF90EF90DF90CF90BF90AF909F909B
:100C20008F907F906F905F904F903F902F9008959E
:100C3000A114B10421F3C50162960FB6F894DEBF8A
:100C40000FBECDBFDF91CF911F910F91FF90EF901D
:100C5000DF90CF90BF90AF909F908F907F906F90DC
:100C60005F904F903F902F900C940F05633039F6B2
:100C70008EE0EAE0F1E0DE01119601900D928A9596
:100C8000E1F78E010F5F1F4FCE010F96988B8F8774
:100C900044244A94542C3201A12C34E0B32EF801A0
:100CA000908081800E5F1F4F392C212C910150E0E4
:100CB00040E060E074E284EF90E00E94B207C21668
:100CC000D306E406F50678F5DA01C9018C199D0909
:100CD000AE09BF0984159505A605B70520F42C01BA
:100CE0003D01A92CB82C8F85988908171907B9F6EA
:100CF000C50162960FB6F894DEBF0FBECDBFDF917F
:100D0000CF911F910F91FF90EF90DF90CF90BF9008
:100D1000AF909F908F907F906F905F904F903F909B
:100D20002F900C947005D701C601821B930BA40B66
:100D3000B50BD0CF823009F062CF633009F05FCFBE
:100D40008EE0EAE0F1E0DE01119601900D928A95C5
:100D5000E1F78E010F5F1F4F1E019FE0290E311C2E
:100D600044244A94542C3201A12C94E0B92EF80169
:100D7000908081800E5F1F4F9A8A198A89899A898B
:100D80009C0150E040E060E074E284EF90E00E945B
:100D9000B207C216D306E406F50698F4DA01C901D3
:100DA0008C199D09AE09BF0984159505A605B705DF
:100DB00020F42C013D01A92CB82C02151305B9F61D
:100DC00097CFD701C601821B930BA40BB50BECCFB9
:100DD000982F842F91112AC0613089F4A091860048
:100DE000B0918700242F30E00E94D4072FEF30E02D
:100DF00040E050E00E94B207C9010C944A056230FD
:100E000089F4A0918600B0918700242F30E00E94E1
:100E1000D4072FEF30E040E050E00E94B207C90154
:100E20000C945A05633041F40C949C05923021F4E3
:100E3000633011F40C949F05089581110AC08FEF5F
:100E4000860F823010F40C946A05633021F40C9400
:100E5000A2058230D1F30895F999FECF92BD81BDEC
:100E6000F89A80B50895F999FECF92BD81BD60BD15
:100E70008FB7F894FA9AF99A8FBF08951F93CF937A
:100E8000DF93EC01162F0E942C07811739F0612F98
:100E9000CE01DF91CF911F910C943307DF91CF9159
:100EA0001F910895CF92DF92EF92FF92CF93DF933D
:100EB00000D0CDB7DEB7C12CD12C7601C616D7062F
:100EC000E806F90649F40F900F90DF91CF91FF905B
:100ED000EF90DF90CF9008951A82198229813A818C
:100EE0002C3D354030F02FEFC21AD20AE20AF20A46
:100EF000E5CF000029813A812F5F3F4F3A83298354
:100F0000EDCFCF93DF931F92CDB7DEB70E942E04B3
:100F100080E20E9405037894CE0101960E942B0383
:100F20008823D1F389818330A1F038F4813071F0C6
:100F3000823091F70E940C04EFCF823169F0833147
:100F400071F0813149F70E940504E6CF0E94FE034B
:100F5000E3CF0E941A04E0CF0E941304DDCF0E9469
:100F60002104DACFA1E21A2EAA1BBB1BFD010DC082
:100F7000AA1FBB1FEE1FFF1FA217B307E407F50749
:100F800020F0A21BB30BE40BF50B661F771F881F25
:100F9000991F1A9469F760957095809590959B01BB
:100FA000AC01BD01CF010895A29FB001B39FC00164
:100FB000A39F700D811D1124911DB29F700D811D85
:100FC0001124911D08950E94D407A59F900DB49FF0
:100FD000900DA49F800D911D11240895F894FFCFCA
:100FE000010008004000000100040100080020008A
:080FF000400080000001000434
:00000001FF
