:100000000C9434000C94D1030C94FA030C9451001A
:100010000C9451000C9451000C9451000C9451001C
:100020000C9451000C9451000C9451000C9451000C
:100030000C9451000C9451000C9432040C94510017
:100040000C9451000C9451000C9451000C945100EC
:100050000C9451000C9451000C9451000C945100DC
:100060000C94B0020C94510011241FBECFEFD8E0C5
:10007000DEBFCDBF11E0A0E0B1E0E0EDF0E102C0F5
:1000800005900D92A437B107D9F721E0A4E7B1E0BC
:1000900001C01D92A238B207E1F70E94D5060C9468
:1000A00066080C940000CF93C82F0E948402882316
:1000B00069F080E40E949702882341F08C2F0E940F
:1000C0009702882319F0CF910C949302CF91089551
:1000D00081309105C9F018F0029759F1089581E037
:1000E00090E0A0E0B0E004C0880F991FAA1FBB1FDA
:1000F0006A95D2F724B14130510519F4822B84B9A5
:10010000089580958223FBCF81E090E0A0E0B0E0ED
:1001100004C0880F991FAA1FBB1F6A95D2F727B189
:100120004130510519F4822B87B9089580958223B7
:10013000FBCF81E090E0A0E0B0E004C0880F991F01
:10014000AA1FBB1F6A95D2F72AB14130510519F495
:10015000822B8AB9089580958223FBCF8130910547
:10016000C1F018F0029749F1089581E090E0A0E015
:10017000B0E004C0880F991FAA1FBB1F6A95D2F771
:1001800025B1452B19F0822B85B9089580958223DE
:10019000FBCF81E090E0A0E0B0E004C0880F991FA1
:1001A000AA1FBB1F6A95D2F728B1452B19F0822BE5
:1001B00088B9089580958223FBCF81E090E0A0E08C
:1001C000B0E004C0880F991FAA1FBB1F6A95D2F721
:1001D0002BB1452B19F0822B8BB908958095822382
:1001E000FBCF81309105A1F028F0029799F090E0C3
:1001F00080E0089583B190E0B0E0A0E004C0B6953F
:10020000A795979587956A95D2F7817090E00895A4
:1002100086B1F1CF89B1EFCF8130910599F018F017
:100220000297F9F0089535B181E090E0A0E0B0E0E8
:1002300004C0880F991FAA1FBB1F6A95D2F7832796
:1002400085B9089538B181E090E0A0E0B0E004C045
:10025000880F991FAA1FBB1F6A95D2F7832788B9F9
:1002600008953BB181E090E0A0E0B0E004C0880FC9
:10027000991FAA1FBB1F6A95D2F783278BB90895D0
:1002800080E480937C0087E080937A0080917A00FC
:10029000806880937A0080917A0086FDFCCF8091FF
:1002A000780080917900089590917C00907F87700C
:1002B000982B90937C0080917A00806480937A00E0
:1002C00080917A0086FDFCCF809178009091790032
:1002D0000895CF93DF93C82F482F417050E065E019
:1002E00082E090E00E94AE004C2F4695417050E0B5
:1002F00064E082E090E00E94AE00C2FB442740F937
:1003000050E063E082E090E00E94AE00C3FB44272F
:1003100040F950E062E082E090E00E94AE0041E0EF
:1003200050E063E090E080E00E94AE00000000003A
:1003300000000000000050E040E063E090E080E05A
:100340000E94AE0061E070E080E090E0DF91CF912C
:100350000C94A606CF93C82F50E040E064E090E0F4
:1003600080E00E94AE008C2F82958F700E94690100
:100370008C2F8F700E946901C15063E070E080E0B3
:1003800090E0C23020F061E070E080E090E0CF913A
:100390000C94A606CF93C82F41E050E064E090E0B3
:1003A00080E00E94AE008C2F85958595859585957A
:1003B0000E9469018C2F8F700E94690162E070E0D9
:1003C00080E090E0CF910C94A60641E050E064E01C
:1003D00090E080E00E94680041E050E063E090E03F
:1003E00080E00E94680041E050E065E082E090E03B
:1003F0000E94680041E050E064E082E090E00E94EA
:10040000680041E050E063E082E090E00E94680014
:1004100041E050E062E082E090E00E94680050E03D
:1004200040E064E090E080E00E94AE0050E040E0F8
:1004300063E090E080E00E94AE0062E370E080E064
:1004400090E00E94A60683E00E94690165E070E0EA
:1004500080E090E00E94A60683E00E94690161E0CE
:1004600070E080E090E00E94A60683E00E946901AF
:1004700061E070E080E090E00E94A60682E00E94C9
:10048000690161E070E080E090E00E94A60688E2E9
:100490000E94AA0188E00E94AA0181E00E94AA01AC
:1004A00086E00E94AA018CE00C94AA01CF93DF930E
:1004B000EC018991811103C0DF91CF9108950E94D1
:1004C000CA01F7CFCF93DF9300D0CDB7DEB7198243
:1004D00090E49A83811181E0FE01E80FF11D818192
:1004E000860F80680F900F90DF91CF910C94AA0136
:1004F00088B1806388B988E48093B800E9EBF0E0C4
:1005000080818C7F8083089584EA8093BC0080E1A1
:1005100097E22091BC0027FF02C081E00895019777
:10052000C1F780E0089584E98093BC00089580932A
:10053000BB0084E88093BC0080E197E22091BC007E
:1005400027FF02C081E008950197C1F780E0089578
:10055000880F8093BA0085EC8093BC00789408954E
:100560001F920F920FB60F9211248F938091B900B2
:10057000887F803611F0803839F48091BB008093F9
:10058000790181E0809378018091BC00806C809338
:10059000BC008F910F900FBE0F901F90189541E0F7
:1005A00050E066E082E090E00E94680050E040E0A9
:1005B00066E082E090E00C94AE0041E050E066E03E
:1005C00082E090E00C94AE0050E040E066E082E013
:1005D00090E00C94AE0066E082E090E00C940C0198
:1005E00041E050E060E090E080E00E94680050E070
:1005F00040E060E090E080E00C94AE0041E050E02C
:1006000060E090E080E00C94AE0050E040E060E0FC
:1006100090E080E00C94AE0060E090E080E00C940C
:100620000C01089583E00E94540121E08F35914030
:1006300008F420E0822F089508950F931F93FC0182
:1006400071836083538342833583248317830683B6
:100650001F910F910895CF93DF93EB010E945401F6
:10066000AC018881998184179507A8F48A819B81C0
:100670008417950798F48C819D818417950780F4E1
:1006800081E090E06E817F816417750708F480E057
:10069000DF91CF91089584E090E0FACF83E0FCCF22
:1006A00082E0FACF50E040E060E090E080E00C941F
:1006B000AE0041E050E060E090E080E00C94AE00DD
:1006C00050E040E061E090E080E00C94AE0041E05A
:1006D00050E061E090E080E00C94AE0050E040E03B
:1006E00062E090E080E00C94AE0041E050E062E017
:1006F00090E080E00C94AE000E9459030E946703D2
:100700000C94750341E050E060E090E080E00E94CE
:10071000680041E050E061E090E080E00E94680005
:1007200041E050E062E090E080E00E9468000C94BC
:100730007C03F894811111C0809169008C7F8093B3
:10074000690080916900682B6093690050937D0176
:1007500040937C01E89A789408958130E1F7809184
:100760006900837F8093690080916900660F660F3E
:10077000682B6093690050937B0140937A01E99A5A
:10078000EACF811102C0E89A0895813009F4E99A0C
:100790000895811102C0E8980895813009F4E9981C
:1007A00008951F920F920FB60F9211242F933F932B
:1007B0004F935F936F937F938F939F93AF93BF9369
:1007C000EF93FF93E0917C01F0917D01309709F068
:1007D0000995FF91EF91BF91AF919F918F917F917B
:1007E0006F915F914F913F912F910F900FBE0F909E
:1007F0001F9018951F920F920FB60F9211242F93EE
:100800003F934F935F936F937F938F939F93AF9398
:10081000BF93EF93FF93E0917A01F0917B013097C2
:1008200009F00995FF91EF91BF91AF919F918F9141
:100830007F916F915F914F913F912F910F900FBEDC
:100840000F901F90189584B5826084BD89EF87BD95
:10085000EEE6F0E080818260808385B5836085BDAF
:10086000789408951F920F920FB60F9211248F93D0
:100870009F93AF93BF9380917E0190917F01A09150
:100880008001B09181010196A11DB11D80937E016F
:1008900090937F01A0938001B0938101BF91AF91AC
:1008A0009F918F910F900FBE0F901F9018952FB7AB
:1008B000F89460917E0170917F0180918001909108
:1008C00081012FBF089522EA2093800028E1209320
:1008D000810070938700609386008034910531F128
:1008E00048F48130910511F0089779F080918100EA
:1008F00081600EC0811521E09207E1F081159440DE
:10090000A9F780918100856003C080918100826099
:1009100080938100109289001092880010928B00C1
:1009200010928A0084B1866084B908958091810014
:100930008360EECF809181008460EACF20918600B1
:10094000309187002817390720F480918600909114
:1009500087009093890080938800089520918600F5
:10096000309187002817390720F4809186009091F4
:10097000870090938B0080938A000895E1E8F0E06F
:100980008081887F8083089523EA2093B00080329D
:100990009105F1F038F48130910501F1089771F07B
:1009A00087E00DC080389105A9F0811521E09207FC
:1009B00099F080349105A1F784E001C082E0809332
:1009C000B1001092B3001092B400239A539A089584
:1009D00083E0F5CF85E0F3CF86E0F1CF81E0EFCF84
:1009E0008093B30008958093B4000895E1EBF0E0A4
:1009F0008081887F808308952F923F924F925F92EB
:100A00006F927F928F929F92AF92BF92CF92DF921E
:100A1000EF92FF920F931F93CF93DF93CDB7DEB783
:100A200062970FB6F894DEBF0FBECDBF69017A01A1
:100A30008111D4C08FEF860F823008F06BC08AE03E
:100A4000E0E0F1E0DE01119601900D928A95E1F768
:100A50008E010F5F1F4F4E012BE0820E911C412C27
:100A600044E2542E44EF642E712CF801A190B19011
:100A70008F01D501A70196010E9426089B01AC01B8
:100A8000C301B2010E94F507CA01B90161507109A1
:100A90008109910961157105F1E08F079105E0F079
:100AA0008016910611F762960FB6F894DEBF0FBE5E
:100AB000CDBFDF91CF911F910F91FF90EF90DF900D
:100AC000CF90BF90AF909F908F907F906F905F90EE
:100AD0004F903F902F900895A114B10421F3C501C8
:100AE00062960FB6F894DEBF0FBECDBFDF91CF91F7
:100AF0001F910F91FF90EF90DF90CF90BF90AF903C
:100B00009F908F907F906F905F904F903F902F902D
:100B10000C946304633039F68EE0EAE0F1E0DE0124
:100B2000119601900D928A95E1F78E010F5F1F4F8C
:100B3000CE010F96988B8F8744244A94542C32010F
:100B4000A12C34E0B32EF801908081800E5F1F4FFE
:100B5000392C212C910150E040E060E074E284EFF8
:100B600090E00E94F507C216D306E406F50678F574
:100B7000DA01C9018C199D09AE09BF0984159505D3
:100B8000A605B70520F42C013D01A92CB82C8F85B2
:100B9000988908171907B9F6C50162960FB6F89437
:100BA000DEBF0FBECDBFDF91CF911F910F91FF90A0
:100BB000EF90DF90CF90BF90AF909F908F907F90FD
:100BC0006F905F904F903F902F900C94C404D7018A
:100BD000C601821B930BA40BB50BD0CF823009F05A
:100BE00062CF633009F05FCF8EE0EAE0F1E0DE0132
:100BF000119601900D928A95E1F78E010F5F1F4FBC
:100C00001E019FE0290E311C44244A94542C3201C9
:100C1000A12C94E0B92EF801908081800E5F1F4FC7
:100C20009A8A198A89899A899C0150E040E060E09B
:100C300074E284EF90E00E94F507C216D306E40642
:100C4000F50698F4DA01C9018C199D09AE09BF09AE
:100C500084159505A605B70520F42C013D01A92CA6
:100C6000B82C02151305B9F697CFD701C601821B20
:100C7000930BA40BB50BECCF982F842F91112AC0A6
:100C8000613089F4A0918600B0918700242F30E074
:100C90000E9417082FEF30E040E050E00E94F50777
:100CA000C9010C949E04623089F4A0918600B09131
:100CB0008700242F30E00E9417082FEF30E040E03B
:100CC00050E00E94F507C9010C94AE04633041F472
:100CD0000C94F004923021F4633011F40C94F3047A
:100CE000089581110AC08FEF860F823010F40C94A2
:100CF000BE04633021F40C94F6048230D1F30895DD
:100D0000F999FECF92BD81BDF89A80B50895F99901
:100D1000FECF92BD81BD60BD8FB7F894FA9AF99A63
:100D20008FBF08951F93CF93DF93EC01162F0E947E
:100D30008006811739F0612FCE01DF91CF911F918D
:100D40000C948706DF91CF911F910895CF92DF9287
:100D5000EF92FF92CF93DF9300D0CDB7DEB7C12CD7
:100D6000D12C7601C616D706E806F90649F40F908D
:100D70000F90DF91CF91FF90EF90DF90CF9008958B
:100D80001A82198229813A812C3D354030F02FEFAB
:100D9000C21AD20AE20AF20AE5CF000029813A819A
:100DA0002F5F3F4F3A832983EDCFCF93DF93CDB7AA
:100DB000DEB762970FB6F894DEBF0FBECDBF0E94BC
:100DC00040010E94E5010E9478028AB1806C8AB9D4
:100DD000209A8BB18F738BB9289888E191E00E949B
:100DE000560260ED77E080E090E00E94A60681E088
:100DF0000E94AA0194E6E92EF12C5F9A6AE070E065
:100E000080E090E00E94A60683E00E9454018C01DD
:100E10005F9880E00E9454014C0181E00E945401DF
:100E20005C0182E00E9454016C019A828982BC823A
:100E3000AB829E838D830536110508F492C05E98BF
:100E40002898CE0101963C0105E711E080E044249A
:100E50004394F301219131913F0155245394580E4D
:100E60002935F2E03F0708F46AC0F801808181115A
:100E700005C0852D0E945300F80140820F5F1F4F6F
:100E8000852D833031F7C401B7010E94E107CB0102
:100E90004AE0BE01615F7F4F0E943108C501B70182
:100EA0000E94E107CB014AE0BE01655F7F4F0E94CF
:100EB0003108C601B7010E94E107CB014AE0BE013B
:100EC000695F7F4F0E94310860E080E00E9462020B
:100ED00088E291E00E945602CE010F960E945602CF
:100EE0008CE291E00E945602CE010B960E945602BF
:100EF00081E391E00E945602CE0107960E945602BD
:100F000060E081E00E94620286E391E00E94560266
:100F100080917501811108C080917601811104C012
:100F2000809177018823D1F08FE391E00E945602EF
:100F300064EF71E080E090E00E94A6065ECF26326A
:100F4000324008F09BCFF8019081992309F496CFA5
:100F50008F5E0E945300F801108290CF88E491E0E8
:100F6000E5CF85E7C82E81E0D82E11E1F601819109
:100F70006F01882331F0812F0E945300F6013197D1
:100F800010821F5F143191F780917401811114C098
:100F90005E9A289A81E08093740160E080E00E946C
:100FA000620281E591E00E94560260E081E00E94C9
:100FB000620282E691E0BACF5E982898109274019E
:100FC000ECCFAA1BBB1B51E107C0AA1FBB1FA61772
:100FD000B70710F0A61BB70B881F991F5A95A9F7E2
:100FE00080959095BC01CD010895A1E21A2EAA1B0F
:100FF000BB1BFD010DC0AA1FBB1FEE1FFF1FA217C9
:10100000B307E407F50720F0A21BB30BE40BF50BC5
:10101000661F771F881F991F1A9469F7609570954E
:10102000809590959B01AC01BD01CF010895A29FD1
:10103000B001B39FC001A39F700D811D1124911DAC
:10104000B29F700D811D1124911D08950E941708F3
:10105000A59F900DB49F900DA49F800D911D11240C
:101060000895BB274A3031F4992322F4BDE29095CC
:1010700081959F4F0C943D08BB27FB015527AA275C
:10108000880F991FAA1FA41710F0A41B8395505115
:10109000B9F7A05DAA3308F0A95DA193009779F78D
:1010A000B111B1931192CB010C945608DC01FC01F3
:1010B000672F71917723E1F7329704C07C916D938C
:1010C00070836291AE17BF07C8F30895F894FFCFFD
:1010D0000100080040000001000401000800200099
:1010E000400080000001000453697374656D204165
:1010F000637469762E2E2E0053313A002053323A13
:10110000002053333A004170613A4F4B20200020B9
:101110004952494741202000205354425920202061
:1011200000202053495354454D204F5052495420DC
:101130002000414C41524D413A4C495053412041CD
:04114000504100001A
:00000001FF
