:100000000C9434000C94BE050C94E7050C9451003C
:100010000C9451000C9451000C9451000C9451001C
:100020000C9451000C9451000C9451000C9451000C
:100030000C9451000C9451000C941F060C94510028
:100040000C9451000C9451000C9451000C945100EC
:100050000C9451000C9451000C9451000C945100DC
:100060000C947C040C94510011241FBECFEFD8E0F7
:10007000DEBFCDBF11E0A0E0B1E0E6EFFAE102C0E3
:1000800005900D92AA3BB107D9F721E0AAEBB1E0A8
:1000900001C01D92A93CB207E1F70E94C2080C946E
:1000A000790D0C940000FB01843640F48A3038F45A
:1000B00090E29083805D81831282089583E66AE0F6
:1000C0000E94590A805D8083905D9183F5CF8A33C9
:1000D00022E0920798F4833D910590F02AE332E004
:1000E000281B390BA3E6B0E00E94870A28E631E01E
:1000F00040E050E00E94650A822F089580E0089554
:1001000083E60895CF93C82F0E941404882369F0D2
:1001100080E40E942E04882341F08C2F0E942E043C
:10012000882319F0CF910C942A04CF9108950F934E
:100130001F93CF93DF93CDB7DEB72E970FB6F8940A
:10014000DEBF0FBECDBF062F142FBE01665F7F4FEF
:100150000E945300BE01695F7F4F802F0E945300B1
:10016000BE016C5F7F4F812F0E945300E091BB0165
:10017000F0E0E050FF4FBE016F5F7F4F80810E9433
:10018000530060E080E00E9416038BE191E00E9442
:100190000A03CE010A960E940A038EE191E00E94B2
:1001A0000A03CE0107960E940A0382E291E00E94B0
:1001B0000A03CE0104960E940A0385EA91E00E9498
:1001C0000A0360E081E00E94160386E291E00E944B
:1001D0000A038091BB018F5C8D871E86CE010D9630
:1001E0000E940A038DE291E00E940A03CE0101966B
:1001F0000E940A038FE291E00E940A038091BC01F1
:10020000811108C08091BD01811104C08091BE019F
:10021000882379F082E391E00E940A032E960FB6BC
:10022000F894DEBF0FBECDBFDF91CF911F910F912C
:10023000089587E391E0F0CF81309105C9F018F07F
:10024000029759F1089581E090E0A0E0B0E004C089
:10025000880F991FAA1FBB1F6A95D2F724B141309E
:10026000510519F4822B84B9089580958223FBCF20
:1002700081E090E0A0E0B0E004C0880F991FAA1FC1
:10028000BB1F6A95D2F727B14130510519F4822B73
:1002900087B9089580958223FBCF81E090E0A0E0AC
:1002A000B0E004C0880F991FAA1FBB1F6A95D2F740
:1002B0002AB14130510519F4822B8AB908958095ED
:1002C0008223FBCF81309105C1F018F0029749F1EC
:1002D000089581E090E0A0E0B0E004C0880F991F8D
:1002E000AA1FBB1F6A95D2F725B1452B19F0822BA7
:1002F00085B9089580958223FBCF81E090E0A0E04E
:10030000B0E004C0880F991FAA1FBB1F6A95D2F7DF
:1003100028B1452B19F0822B88B908958095822346
:10032000FBCF81E090E0A0E0B0E004C0880F991F0F
:10033000AA1FBB1F6A95D2F72BB1452B19F0822B50
:100340008BB9089580958223FBCF81309105A1F070
:1003500028F0029799F090E080E0089583B190E052
:10036000B0E0A0E004C0B695A795979587956A95EB
:10037000D2F7817090E0089586B1F1CF89B1EFCFC7
:100380008130910599F018F00297F9F0089535B190
:1003900081E090E0A0E0B0E004C0880F991FAA1FA0
:1003A000BB1F6A95D2F7832785B9089538B181E0DC
:1003B00090E0A0E0B0E004C0880F991FAA1FBB1F07
:1003C0006A95D2F7832788B908953BB181E090E020
:1003D000A0E0B0E004C0880F991FAA1FBB1F6A9558
:1003E000D2F783278BB9089580E480937C0087E05F
:1003F00080937A0080917A00806880937A0080915F
:100400007A0086FDFCCF8091780080917900089574
:1004100090917C00907F8770982B90937C008091C6
:100420007A00806480937A0080917A0086FDFCCF08
:1004300080917800909179000895CF93DF93C82F31
:10044000482F417050E065E082E090E00E94620138
:100450004C2F4695417050E064E082E090E00E94AD
:100460006201C2FB442740F950E063E082E090E083
:100470000E946201C3FB442740F950E062E082E041
:1004800090E00E94620141E050E063E090E080E093
:100490000E9462010000000000000000000050E027
:1004A00040E063E090E080E00E94620161E070E083
:1004B00080E090E0DF91CF910C949308CF93C82F08
:1004C00050E040E064E090E080E00E9462018C2F08
:1004D00082958F700E941D028C2F8F700E941D02CA
:1004E000C15063E070E080E090E0C23020F061E055
:1004F00070E080E090E0CF910C949308CF93C82FE8
:1005000041E050E064E090E080E00E9462018C2FC6
:1005100085958595859585950E941D028C2F8F70F8
:100520000E941D0262E070E080E090E0CF910C94A8
:10053000930841E050E064E090E080E00E941C01FC
:1005400041E050E063E090E080E00E941C0141E067
:1005500050E065E082E090E00E941C0141E050E044
:1005600064E082E090E00E941C0141E050E063E022
:1005700082E090E00E941C0141E050E062E082E0F5
:1005800090E00E941C0150E040E064E090E080E0D8
:100590000E94620150E040E063E090E080E00E9451
:1005A000620162E370E080E090E00E94930883E0E3
:1005B0000E941D0265E070E080E090E00E949308D8
:1005C00083E00E941D0261E070E080E090E00E9404
:1005D000930883E00E941D0261E070E080E090E0FB
:1005E0000E94930882E00E941D0261E070E080E0BA
:1005F00090E00E94930888E20E945E0288E00E94D8
:100600005E0281E00E945E0286E00E945E028CE053
:100610000C945E02CF93DF93EC018991811103C0AA
:10062000DF91CF9108950E947E02F7CFCF93DF93A1
:1006300000D0CDB7DEB7198290E49A83811181E0B2
:10064000FE01E80FF11D8181860F80680F900F90E9
:10065000DF91CF910C945E029A0150E040E0E4E01B
:10066000220F331F441F551FEA95D1F70E94650AD8
:10067000BA01A9014150510961097109BB27A72F8E
:10068000962F852F8093C5004093C40088E1809306
:10069000C10086E08093C2000895FC0170E09F01D4
:1006A000281B390B261737070CF008952091C0003E
:1006B00025FFFCCF21912093C600F1CF8F929F920E
:1006C000AF92BF92EF92FF920F931F93CF93DF935E
:1006D0008C010E9444064B015C017801D0E0C0E02F
:1006E0000E944406681979098A099B09693E73408A
:1006F0008105910518F4C233D10581F4F801EC0F9E
:10070000FD1F1082CE01DF91CF911F910F91FF90BD
:10071000EF90BF90AF909F908F9008958091C00010
:1007200087FFDECF8091C600F70181937F010E9491
:1007300044064B015C01F701319780818A30F1F268
:100740008D30E1F22196CCCF50E040E061E090E0C6
:1007500080E00E941C0150E040E062E090E080E018
:100760000E941C0150E040E065E090E080E00E94C3
:100770001C0141E050E061E090E080E00E946201F5
:1007800041E050E062E090E080E00E94620141E0E0
:1007900050E065E090E080E00C94620161E090E060
:1007A00080E00E94A50121E0892B09F020E0822F42
:1007B000089562E090E080E00E94A50121E0892B8D
:1007C00009F020E0822F089565E090E080E00E942B
:1007D000A50121E0892B09F020E0822F089550E047
:1007E00040E064E081E090E00E941C0141E050E0C4
:1007F00064E081E090E00E94620150E040E065E04A
:1008000081E090E00E941C0141E050E065E081E061
:1008100090E00E94620188E48093B800E9EBF0E088
:1008200080818C7F8083089584EA8093BC0080E17E
:1008300097E22091BC0027FF09C09091B900987FF2
:1008400081E0983011F0903119F40895019789F7FB
:1008500080E0089584E98093BC0008958093BB00F4
:1008600084E88093BC0080E197E22091BC0027FFE0
:1008700009C09091B900987F81E0983111F09832C9
:1008800019F40895019789F780E00895CF93C82F50
:1008900050E040E064E081E090E00E941C0141E013
:1008A00050E064E081E090E00E94620150E040E0AE
:1008B00065E081E090E00E941C0141E050E065E0CD
:1008C00081E090E00E946201CC0FC093BA0085ECF9
:1008D0008093BC00CF9108952091C001222351F054
:1008E000F8942091BF01FC0120831092C0017894FC
:1008F00081E0089580E008951F920F920FB60F9245
:1009000011248F938091B900887F803839F48091C9
:10091000BB008093BF0181E08093C00185EC809390
:10092000BC008F910F900FBE0F901F90189541E063
:1009300050E066E082E090E00E941C0150E040E060
:1009400066E082E090E00C94620141E050E066E0F5
:1009500082E090E00C94620150E040E066E082E0CA
:1009600090E00C94620166E082E090E00C94C0019B
:1009700041E050E060E090E080E00E941C0150E027
:1009800040E060E090E080E00C94620141E050E0E3
:1009900060E090E080E00C94620150E040E060E0B4
:1009A00090E080E00C94620160E090E080E00C94C4
:1009B000C00141E050E067E082E090E00E941C014D
:1009C00050E040E067E082E090E00C946201CF9359
:1009D000DF9341E050E067E082E090E00E94620136
:1009E0006AE070E080E090E00E94930883E00E945B
:1009F0000802EC0150E040E067E082E090E00E94F5
:100A0000620181E0CF35D14008F480E0DF91CF91E1
:100A1000089508950F931F93FC017183608353839E
:100A2000428335832483178306831F910F91089592
:100A3000CF93DF93EB010E940802AC01888199817A
:100A400084179507A8F48A819B818417950798F4E9
:100A50008C819D818417950780F481E090E06E8100
:100A60007F816417750708F480E0DF91CF910895C6
:100A700084E090E0FACF83E0FCCF82E0FACF50E050
:100A800040E060E090E080E00C94620141E050E0E2
:100A900060E090E080E00C94620150E040E061E0B2
:100AA00090E080E00C94620141E050E061E090E071
:100AB00080E00C94620150E040E062E090E080E071
:100AC0000C94620141E050E062E090E080E00C9420
:100AD00062010E9446050E9454050C94620541E0A3
:100AE00050E060E090E080E00E941C0141E050E0B6
:100AF00061E090E080E00E941C0141E050E062E093
:100B000090E080E00E941C010C946905F89481112A
:100B100011C0809169008C7F809369008091690089
:100B2000682B609369005093C4014093C301E89A15
:100B3000789408958130E1F780916900837F8093F4
:100B4000690080916900660F660F682B60936900E9
:100B50005093C2014093C101E99AEACF811102C0CA
:100B6000E89A0895813009F4E99A0895811102C044
:100B7000E8980895813009F4E99808951F920F923A
:100B80000FB60F9211242F933F934F935F936F9360
:100B90007F938F939F93AF93BF93EF93FF93E091D6
:100BA000C301F091C401309709F00995FF91EF91CD
:100BB000BF91AF919F918F917F916F915F914F9175
:100BC0003F912F910F900FBE0F901F9018951F927D
:100BD0000F920FB60F9211242F933F934F935F9371
:100BE0006F937F938F939F93AF93BF93EF93FF93F5
:100BF000E091C101F091C201309709F00995FF9190
:100C0000EF91BF91AF919F918F917F916F915F9184
:100C10004F913F912F910F900FBE0F901F901895FD
:100C200084B5826084BD89EF87BDEEE6F0E0808107
:100C30008260808385B5836085BD789408951F9216
:100C40000F920FB60F9211248F939F93AF93BF9380
:100C50008091C5019091C601A091C701B091C801D2
:100C60000196A11DB11D8093C5019093C601A0936B
:100C7000C701B093C801BF91AF919F918F910F9021
:100C80000FBE0F901F9018952FB7F8946091C50173
:100C90007091C6018091C7019091C8012FBF08953E
:100CA00022EA2093800028E120938100709387003E
:100CB000609386008034910531F148F481309105CC
:100CC00011F0089779F08091810081600EC0811544
:100CD00021E09207E1F081159440A9F7809181000D
:100CE000856003C0809181008260809381001092B2
:100CF00089001092880010928B0010928A0084B1B3
:100D0000866084B90895809181008360EECF8091E0
:100D100081008460EACF20918600309187002817F7
:100D2000390720F480918600909187009093890084
:100D300080938800089520918600309187002817BD
:100D4000390720F4809186009091870090938B0062
:100D500080938A000895E1E8F0E08081887F8083B5
:100D6000089523EA2093B00080329105F1F038F421
:100D70008130910501F1089771F087E00DC080384E
:100D80009105A9F0811521E0920799F08034910531
:100D9000A1F784E001C082E08093B1001092B3001B
:100DA0001092B400239A539A089583E0F5CF85E01A
:100DB000F3CF86E0F1CF81E0EFCF8093B3000895C9
:100DC0008093B4000895E1EBF0E08081887F808318
:100DD00008952F923F924F925F926F927F928F92DF
:100DE0009F92AF92BF92CF92DF92EF92FF920F93BA
:100DF0001F93CF93DF93CDB7DEB762970FB6F8940A
:100E0000DEBF0FBECDBF69017A018111D4C08FEF63
:100E1000860F823008F06BC08AE0E3E0F1E0DE018B
:100E2000119601900D928A95E1F78E010F5F1F4F89
:100E30004E012BE0820E911C412C44E2542E44EFD3
:100E4000642E712CF801A190B1908F01D501A701FA
:100E500096010E94960A9B01AC01C301B2010E9457
:100E6000650ACA01B90161507109810991096115C9
:100E70007105F1E08F079105E0F08016910611F7FA
:100E800062960FB6F894DEBF0FBECDBFDF91CF9153
:100E90001F910F91FF90EF90DF90CF90BF90AF9098
:100EA0009F908F907F906F905F904F903F902F908A
:100EB0000895A114B10421F3C50162960FB6F89408
:100EC000DEBF0FBECDBFDF91CF911F910F91FF907D
:100ED000EF90DF90CF90BF90AF909F908F907F90DA
:100EE0006F905F904F903F902F900C94500663301E
:100EF00039F68EE0EDE0F1E0DE01119601900D9201
:100F00008A95E1F78E010F5F1F4FCE010F96988BE8
:100F10008F8744244A94542C3201A12C34E0B32E00
:100F2000F801908081800E5F1F4F392C212C910198
:100F300050E040E060E074E284EF90E00E94650AD7
:100F4000C216D306E406F50678F5DA01C9018C1954
:100F50009D09AE09BF0984159505A605B70520F4BE
:100F60002C013D01A92CB82C8F85988908171907E9
:100F7000B9F6C50162960FB6F894DEBF0FBECDBFBD
:100F8000DF91CF911F910F91FF90EF90DF90CF9065
:100F9000BF90AF909F908F907F906F905F904F9099
:100FA0003F902F900C94B106D701C601821B930B82
:100FB000A40BB50BD0CF823009F062CF633009F0BB
:100FC0005FCF8EE0EDE0F1E0DE01119601900D9231
:100FD0008A95E1F78E010F5F1F4F1E019FE0290EDA
:100FE000311C44244A94542C3201A12C94E0B92E93
:100FF000F801908081800E5F1F4F9A8A198A898933
:101000009A899C0150E040E060E074E284EF90E057
:101010000E94650AC216D306E406F50698F4DA01C2
:10102000C9018C199D09AE09BF0984159505A6054E
:10103000B70520F42C013D01A92CB82C021513058D
:10104000B9F697CFD701C601821B930BA40BB50B42
:10105000ECCF982F842F91112AC0613089F4A09190
:101060008600B0918700242F30E00E94870A2FEF7E
:1010700030E040E050E00E94650AC9010C948B0604
:10108000623089F4A0918600B0918700242F30E06F
:101090000E94870A2FEF30E040E050E00E94650A8E
:1010A000C9010C949B06633041F40C94DD06923028
:1010B00021F4633011F40C94E006089581110AC004
:1010C0008FEF860F823010F40C94AB06633021F45E
:1010D0000C94E3068230D1F30895F999FECF92BDC6
:1010E00081BDF89A80B50895F999FECF92BD81BD72
:1010F00060BD8FB7F894FA9AF99A8FBF08951F933D
:10110000CF93DF93EC01162F0E946D08811739F001
:10111000612FCE01DF91CF911F910C947408DF9164
:10112000CF911F910895CF92DF92EF92FF92CF93CC
:10113000DF9300D0CDB7DEB7C12CD12C7601C61617
:10114000D706E806F90649F40F900F90DF91CF918A
:10115000FF90EF90DF90CF9008951A821982298135
:101160003A812C3D354030F02FEFC21AD20AE20A04
:10117000F20AE5CF000029813A812F5F3F4F3A8381
:101180002983EDCFCF93DF93CDB7DEB7C454D10918
:101190000FB6F894DEBF0FBECDBF0E94F4010E94CF
:1011A00099020E94EF030E94A4030E94B8040E94C7
:1011B00097040E94D90440E855E260E074E284EFAD
:1011C00090E00E942C038CE391E00E940A0368EEF9
:1011D00073E080E090E00E94930881E00E945E024C
:1011E000F12CE12CD12C712C8E010F5F1F4F7BE471
:1011F000872E71E0972E0E94CE03882371F0F110A4
:101200000CC0E091BB01F0E0E050FF4F80818630E0
:1012100010F08550808363E0F62E0E94D903882366
:1012200061F0E1100AC08091BB018F5F833008F04C
:10123000BEC08093BB0154E0E52E0E94E4038823E6
:1012400071F071100CC0E091BB01F0E0E050FF4F75
:1012500080818F3510F48B5F808343E0742ED394AC
:1012600029E02D1508F094C00E94E704D82E80E0F4
:101270000E9408020E946700682E22968FAF229774
:1012800081E00E9408020E946700582E23968FAFCB
:10129000239782E00E9408020E946700482E24964D
:1012A0008FAF249741E0D41293C00E94CD040E94D6
:1012B000AC0420E0222E21E0322ECE018F5B9F4F26
:1012C0005C013CEBC32E31E0D32E80E0F101319183
:1012D0001F0125E0230FF50191915F01F1E0F80F67
:1012E0002596FFAF2597931708F064C0F60130816B
:1012F0003111DBC025968FAD25970E94820021E039
:10130000F6012083FFEFCF1ADF0A25968FAD2597D0
:101310008330E1F68091BB011F928F93809102018F
:101320001F928F93809101011F928F9380910001F2
:101330001F928F938091BE011F928F938091BD0168
:101340001F928F938091BC011F928F931F924F9297
:101350001F925F921F926F929F928F921F930F9393
:101360000E94A10AF80101900020E9F73197BF011E
:10137000601B710BC8010E944D03442D652D862D05
:101380000E9497000FB6F894DEBF0FBECDBFD12CE0
:1013900062E370E080E090E00E949308F110FA941C
:1013A000E110EA94772009F426CF7A9424CF1092A2
:1013B000BB0141CF921708F4A5CFF6019081992384
:1013C00009F4A0CF8F5E0E948200F60110829ACFAE
:1013D0008CEBC82E81E0D82E91E1392EF601819157
:1013E0006F01882331F0832D0E948200F60131972E
:1013F00010823394F4E13F12F1CF8091BA01811150
:101400004DC00E94C6040E94A50481E08093BA01E9
:101410008091BB011F928F93809102011F928F9345
:10142000809101011F928F93809100011F928F93F1
:101430008091BE011F928F938091BD011F928F9367
:101440008091BC011F928F931F924F921F925F92C7
:101450001F926F9281E791E09F938F931F930F9359
:101460000E94A10AF80101900020E9F73197BF011D
:10147000601B710BC8010E944D0360E080E00E9478
:10148000160387E991E00E940A0360E081E00E9470
:10149000160388EA91E00E940A0374CF0E94CD04EB
:1014A0000E94AC041092BA01B3CF921708F42ACF6D
:1014B00089CF991B79E004C0991F961708F0961BF5
:1014C000881F7A95C9F780950895A1E21A2EAA1B64
:1014D000BB1BFD010DC0AA1FBB1FEE1FFF1FA217E4
:1014E000B307E407F50720F0A21BB30BE40BF50BE1
:1014F000661F771F881F991F1A9469F7609570956A
:10150000809590959B01AC01BD01CF010895A29FEC
:10151000B001B39FC001A39F700D811D1124911DC7
:10152000B29F700D811D1124911D08950E94870A9C
:10153000A59F900DB49F900DA49F800D911D112427
:101540000895AEE0B0E0E7EAFAE00C94500D0D89A2
:101550001E8986E08C831A8309838FEF9FE79E8321
:101560008D83AE01475E5F4F6F89788DCE01019606
:101570000E94C40A2F813885020F131FF8011082C0
:101580002E96E4E00C946C0DABE0B0E0EAECFAE0EF
:101590000C94420D7C013B018A01FC0117821682EA
:1015A000838181FFC8C1CE0101965C01F70193815F
:1015B000F30193FD859193FF81913F01882309F405
:1015C00053C1853239F493FD859193FF81913F0199
:1015D000853229F4B70190E00E94B40CE7CF912C3A
:1015E000212C312CFFE1F31538F08B3211F190F4FE
:1015F000803209F1833229F137FC3CC020ED280FFD
:101600002A3050F536FE20C08AE0989E200D112425
:10161000922E06C08D3291F0803371F7689430F8C5
:10162000F30193FD859193FF81913F018111DACF01
:1016300021C0689431F8689432F8F2CF689433F896
:10164000EFCF689434F8ECCFEAE02E9E200D112401
:10165000222E689435F8E4CF8E3229F436FC04C18A
:10166000689436F8DDCF8C3619F4689437F8D8CF03
:101670008836B1F2982F9F7D95549330E0F08336F1
:10168000A1F18337C1F1833509F063C02801F2E08D
:101690004F0E511CF801C080D180692D70E036FCDE
:1016A00002C06FEF7FEFC6010E949E0C4C01689450
:1016B00037F882010AC00C5F1F4FFFE3F9838824CB
:1016C0008394912C6501E89437F833FE2DC0522C99
:1016D0008114910471F5552009F468CFB70180E2B7
:1016E00090E00E94B40C5A94F6CFF801808189836F
:1016F0000E5F1F4FE4CF2801F2E04F0E511CF8019E
:10170000C080D180692D70E036FC02C06FEF7FEFA2
:10171000C6010E94A90C4C018201D5CFB70180E21D
:1017200090E00E94B40C2A942814190409F0B0F730
:10173000CECFF60137FC859137FE81916F01B7015D
:1017400090E00E94B40C51105A94F1E08F1A910865
:10175000BFCF843619F0893609F077C0F80137FE1B
:101760006BC060817181828193810C5F1F4FF32D6B
:10177000FF763F2E97FF09C09095809570956195F3
:101780007F4F8F4F9F4F689437F82AE030E0A501D4
:101790000E94E40CC82ECA188C2C432C36FE0CC0B8
:1017A000E89440F8C91440F434FE05C032FC03C08C
:1017B000F32DFE7E4F2E892C44FE95C0FE01EC0DCC
:1017C000F11D8081803309F087C0242D297E422EAF
:1017D000842D8870582E43FC95C040FE8FC09C2CF1
:1017E000821418F42C0C922C981844FE91C0B70166
:1017F00080E390E00E94B40C42FE09C088E790E0CC
:1018000041FE02C088E590E0B7010E94B40CC91403
:1018100008F48AC0CA94D12C9FEFC91AD90ACA0CFD
:10182000DB1CF60182916F01B70190E00E94B40CBD
:10183000AC14BD04B1F74FCF60817181072E000C4D
:10184000880B990B0E5F1F4F92CFD32CE894D4F8DE
:101850002AE030E0853739F1232D297FD22E8F36CB
:1018600001F148F48835A9F0F701868197812B961C
:10187000E2E10C945E0D803749F08837A9F7D4FE79
:1018800002C06894D2F820E130E00DC06894D4F82A
:10189000F6CF34FE03C0822F8660D82E20E132E0DE
:1018A00002C028E030E0F801D7FE0FC060817181EE
:1018B000828193810C5F1F4FA5010E94E40CC82E0A
:1018C000CA183D2CE89437F867CF6081718190E0A9
:1018D00080E00E5F1F4FF0CF42FC02C0839478CFB0
:1018E0008394839475CF842D867809F471CFF6CFD5
:1018F000B70180E290E00E94B40C83948214C0F39C
:10190000512C73CF522C5818821408F46ECFF8CF94
:10191000842D867809F47BCF8BE241FE80E247FC80
:101920008DE2B70190E071CFB70180E390E00E94B3
:10193000B40C9A946CCF8FEF9FEF99CFFC01059078
:10194000615070400110D8F7809590958E0F9F1FC1
:101950000895FC016150704001900110D8F7809506
:1019600090958E0F9F1F08950F931F93CF93DF9332
:10197000182F092FEB018B8181FD09C01FEF0FEF9D
:10198000812F902FDF91CF911F910F91089582FFAA
:1019900014C02E813F818C819D81281739073CF42A
:1019A000E881F981CF0101969983888310838E8124
:1019B0009F8101969F838E83E3CFE885F985812FF0
:1019C0000995892BA1F3DACFFA01AA27283051F122
:1019D000203181F1E8946F936E7F6E5F7F4F8F4F60
:1019E0009F4FAF4FB1E03ED0B4E03CD0670F781FBF
:1019F000891F9A1FA11D680F791F8A1F911DA11DA4
:101A00006A0F711D811D911DA11D20D009F46894DC
:101A10003F912AE0269F11243019305D3193DEF684
:101A2000CF010895462F4770405D4193B3E00FD03A
:101A3000C9F7F6CF462F4F70405D4A3318F0495D25
:101A400031FD4052419302D0A9F7EACFB4E0A69508
:101A50009795879577956795BA95C9F7009761052A
:101A6000710508959B01AC010A2E06945795479580
:101A700037952795BA95C9F7620F731F841F951F75
:101A8000A01D08952F923F924F925F926F927F9286
:101A90008F929F92AF92BF92CF92DF92EF92FF927E
:101AA0000F931F93CF93DF93CDB7DEB7CA1BDB0B2A
:101AB0000FB6F894DEBF0FBECDBF09942A883988CF
:101AC00048885F846E847D848C849B84AA84B984D6
:101AD000C884DF80EE80FD800C811B81AA81B981E2
:101AE000CE0FD11D0FB6F894DEBF0FBECDBFED01F6
:061AF0000895F894FFCFF9
:101AF6002828280100080040000001000401000811
:101B06000020004000800000010004313A0020322D
:101B16003A0020333A00413A4F4B2050003D002511
:101B2600200049524947005354425900536973747F
:101B3600656D204175746F6D617400444154413A7E
:101B460025752C25752C25752C25752C25752C258C
:101B5600752C312C25752C25752C25752C25750A8B
:101B660000444154413A25752C25752C25752C25A4
:101B7600752C25752C25752C302C25752C25752C4A
:101B860025752C25750A00202053495354454D20B0
:101B96004F50524954202000414C41524D413A4C3D
:0A1BA6004950534120415041000016
:00000001FF
